{
  "contractName": "RBAC",
  "abi": [
    {
      "inputs": [
        {
          "internalType": "address",
          "name": "",
          "type": "address"
        }
      ],
      "name": "roles",
      "outputs": [
        {
          "internalType": "string",
          "name": "",
          "type": "string"
        }
      ],
      "stateMutability": "view",
      "type": "function"
    },
    {
      "inputs": [
        {
          "internalType": "address",
          "name": "user",
          "type": "address"
        },
        {
          "internalType": "string",
          "name": "role",
          "type": "string"
        }
      ],
      "name": "grantRole",
      "outputs": [],
      "stateMutability": "nonpayable",
      "type": "function"
    },
    {
      "inputs": [
        {
          "internalType": "address",
          "name": "user",
          "type": "address"
        },
        {
          "internalType": "string",
          "name": "permission",
          "type": "string"
        }
      ],
      "name": "hasPermission",
      "outputs": [
        {
          "internalType": "bool",
          "name": "",
          "type": "bool"
        }
      ],
      "stateMutability": "view",
      "type": "function"
    }
  ],
  "bytecode": "0x608060405234801561000f575f80fd5b5061099b8061001d5f395ff3fe608060405234801561000f575f80fd5b506004361061003f575f3560e01c806389b3af29146100435780639937464214610073578063bddba4eb146100a3575b5f80fd5b61005d60048036038101906100589190610427565b6100bf565b60405161006a919061049b565b60405180910390f35b61008d600480360381019061008891906104b4565b6100ca565b60405161009a9190610559565b60405180910390f35b6100bd60048036038101906100b89190610427565b610164565b005b5f6001905092915050565b5f602052805f5260405f205f9150905080546100e5906105a6565b80601f0160208091040260200160405190810160405280929190818152602001828054610111906105a6565b801561015c5780601f106101335761010080835404028352916020019161015c565b820191905f5260205f20905b81548152906001019060200180831161013f57829003601f168201915b505050505081565b6040518060400160405280600581526020017f41646d696e000000000000000000000000000000000000000000000000000000815250805190602001205f803373ffffffffffffffffffffffffffffffffffffffff1673ffffffffffffffffffffffffffffffffffffffff1681526020019081526020015f206040516101ea9190610672565b604051809103902014610232576040517f08c379a0000000000000000000000000000000000000000000000000000000008152600401610229906106d2565b60405180910390fd5b805f808473ffffffffffffffffffffffffffffffffffffffff1673ffffffffffffffffffffffffffffffffffffffff1681526020019081526020015f20908161027b9190610896565b505050565b5f604051905090565b5f80fd5b5f80fd5b5f73ffffffffffffffffffffffffffffffffffffffff82169050919050565b5f6102ba82610291565b9050919050565b6102ca816102b0565b81146102d4575f80fd5b50565b5f813590506102e5816102c1565b92915050565b5f80fd5b5f80fd5b5f601f19601f8301169050919050565b7f4e487b71000000000000000000000000000000000000000000000000000000005f52604160045260245ffd5b610339826102f3565b810181811067ffffffffffffffff8211171561035857610357610303565b5b80604052505050565b5f61036a610280565b90506103768282610330565b919050565b5f67ffffffffffffffff82111561039557610394610303565b5b61039e826102f3565b9050602081019050919050565b828183375f83830152505050565b5f6103cb6103c68461037b565b610361565b9050828152602081018484840111156103e7576103e66102ef565b5b6103f28482856103ab565b509392505050565b5f82601f83011261040e5761040d6102eb565b5b813561041e8482602086016103b9565b91505092915050565b5f806040838503121561043d5761043c610289565b5b5f61044a858286016102d7565b925050602083013567ffffffffffffffff81111561046b5761046a61028d565b5b610477858286016103fa565b9150509250929050565b5f8115159050919050565b61049581610481565b82525050565b5f6020820190506104ae5f83018461048c565b92915050565b5f602082840312156104c9576104c8610289565b5b5f6104d6848285016102d7565b91505092915050565b5f81519050919050565b5f82825260208201905092915050565b5f5b838110156105165780820151818401526020810190506104fb565b5f8484015250505050565b5f61052b826104df565b61053581856104e9565b93506105458185602086016104f9565b61054e816102f3565b840191505092915050565b5f6020820190508181035f8301526105718184610521565b905092915050565b7f4e487b71000000000000000000000000000000000000000000000000000000005f52602260045260245ffd5b5f60028204905060018216806105bd57607f821691505b6020821081036105d0576105cf610579565b5b50919050565b5f81905092915050565b5f819050815f5260205f209050919050565b5f81546105fe816105a6565b61060881866105d6565b9450600182165f8114610622576001811461063757610669565b60ff1983168652811515820286019350610669565b610640856105e0565b5f5b8381101561066157815481890152600182019150602081019050610642565b838801955050505b50505092915050565b5f61067d82846105f2565b915081905092915050565b7f5065726d697373696f6e2064656e6965640000000000000000000000000000005f82015250565b5f6106bc6011836104e9565b91506106c782610688565b602082019050919050565b5f6020820190508181035f8301526106e9816106b0565b9050919050565b5f819050815f5260205f209050919050565b5f6020601f8301049050919050565b5f82821b905092915050565b5f6008830261074c7fffffffffffffffffffffffffffffffffffffffffffffffffffffffffffffffff82610711565b6107568683610711565b95508019841693508086168417925050509392505050565b5f819050919050565b5f819050919050565b5f61079a6107956107908461076e565b610777565b61076e565b9050919050565b5f819050919050565b6107b383610780565b6107c76107bf826107a1565b84845461071d565b825550505050565b5f90565b6107db6107cf565b6107e68184846107aa565b505050565b5b81811015610809576107fe5f826107d3565b6001810190506107ec565b5050565b601f82111561084e5761081f816106f0565b61082884610702565b81016020851015610837578190505b61084b61084385610702565b8301826107eb565b50505b505050565b5f82821c905092915050565b5f61086e5f1984600802610853565b1980831691505092915050565b5f610886838361085f565b9150826002028217905092915050565b61089f826104df565b67ffffffffffffffff8111156108b8576108b7610303565b5b6108c282546105a6565b6108cd82828561080d565b5f60209050601f8311600181146108fe575f84156108ec578287015190505b6108f6858261087b565b86555061095d565b601f19841661090c866106f0565b5f5b828110156109335784890151825560018201915060208501945060208101905061090e565b86831015610950578489015161094c601f89168261085f565b8355505b6001600288020188555050505b50505050505056fea26469706673582212202ad3b8c3c9baa5dd9bcdef4acd0cc9fe10a5613052cd44be78ee7393733bed1264736f6c63430008150033",
  "immutableReferences": {},
  "source": "pragma solidity ^0.8.0;\r\n\r\ncontract RBAC {\r\n    mapping(address => string) public roles;\r\n\r\n    modifier onlyAdmin() {\r\n        require(keccak256(bytes(roles[msg.sender])) == keccak256(bytes(\"Admin\")), \"Permission denied\");\r\n        _;\r\n    }\r\n\r\n    function grantRole(address user, string memory role) public onlyAdmin {\r\n        roles[user] = role;\r\n    }\r\n\r\n    function hasPermission(address user, string memory permission) public view returns (bool) {\r\n        // Implement permission check logic\r\n        return true;\r\n    }\r\n}\r\n",
  "sourcePath": "D:\\Collins Kandie\\Syknown\\Amo\\Web 3\\flaskapp\\contracts\\AccessControl.sol",
  "compiler": {
    "name": "solc",
    "version": "0.8.21+commit.d9974bed.Emscripten.clang"
  },
  "schemaVersion": "3.4.16",
  "updatedAt": "2023-12-19T09:20:38.163Z",
  "devdoc": {
    "kind": "dev",
    "methods": {},
    "version": 1
  },
  "userdoc": {
    "kind": "user",
    "methods": {},
    "version": 1
  }
}